:100000000C945D000C9485000C9485000C94850084
:100010000C9485000C9485000C9485000C9485004C
:100020000C9485000C9485000C9485000C9485003C
:100030000C9485000C9485000C9485000C9485002C
:100040000C94B6010C9485000C9485000C948500EA
:100050000C9485000C9485000C9485000C9485000C
:100060000C9485000C94850000000008000201003B
:100070000003040700000000000000000000000072
:10008000250028002B0000000000240027002A0083
:10009000040404040404040402020202020203032E
:1000A0000303030301020408102040800102040836
:1000B0001020010204081020A00211241FBECFEF5F
:1000C000D8E0DEBFCDBF11E0A0E0B1E0E8EEF5E0A2
:1000D00002C005900D92AA30B107D9F721E0AAE03D
:1000E000B1E001C01D92A933B207E1F710E0CDE500
:1000F000D0E004C02197FE010E94EC02CC35D1076C
:10010000C9F70E9400020C94F2020C94000090E0E7
:10011000FC01EC55FF4F249180579F4FFC018491C7
:10012000882399F090E0880F991FFC01EA57FF4F50
:10013000A591B491FC01E458FF4F859194918FB73C
:10014000F894EC91E22BEC938FBF0895FC0142836D
:1001500053836483758386819781A085B185840FDD
:10016000951FA61FB71F82879387A487B587089519
:1001700090E0FC01E859FF4F2491FC01EC55FF4F42
:100180003491FC01E057FF4FE491EE23C9F02223A4
:1001900039F0233001F1A8F4213019F1223029F18E
:1001A000F0E0EE0FFF1FE458FF4FA591B4918FB719
:1001B000F894EC91611126C030953E233C938FBF9B
:1001C00008952730A9F02830C9F0243049F78091EC
:1001D00080008F7D03C0809180008F7780938000A6
:1001E000DFCF84B58F7784BDDBCF84B58F7DFBCF28
:1001F0008091B0008F778093B000D2CF8091B00013
:100200008F7DF9CF3E2BDACF61E08CE00E94B80001
:1002100060E08CE00C94B8003FB7F89480910B013B
:1002200090910C01A0910D01B0910E0126B5A89BF3
:1002300005C02F3F19F00196A11DB11D3FBFBA2F78
:10024000A92F982F8827BC01CD01620F711D811D38
:10025000911D42E0660F771F881F991F4A95D1F7BD
:1002600008958F929F92AF92BF92CF92DF92EF92BA
:10027000FF920E940C014B015C0184E6C82ED12C38
:10028000E12CF12C0E940C01681979098A099B095B
:10029000683E734081059105A8F321E0C21AD10898
:1002A000E108F10888EE880E83E0981EA11CB11CBD
:1002B000C114D104E104F10429F7FF90EF90DF901D
:1002C000CF90BF90AF909F908F90089561E08BE0AA
:1002D0000E94B8000E94310160E08BE00E94B800EB
:1002E0000C943101CF93DF93EC01EE85FF853097BD
:1002F00009F009958FB7F894409135015091360176
:1003000060913701709138018FBF4E835F8368879A
:1003100079878A819B81AC81BD81840F951FA61F3F
:10032000B71F8A879B87AC87BD87DF91CF910895E0
:100330000F931F93FC010285138524853585401B8F
:10034000510B620B730B80E077FF80891F910F9137
:1003500008952FB7F894409135015091360160917E
:100360003701709138012FBF0C9498011F920F92A2
:100370000FB60F9211242F933F938F939F93AF93B8
:10038000BF938091350190913601A0913701B091D2
:10039000380130910A0123E0230F2D3758F50196DB
:1003A000A11DB11D20930A01809335019093360160
:1003B000A0933701B093380180910B0190910C010B
:1003C000A0910D01B0910E010196A11DB11D809368
:1003D0000B0190930C01A0930D01B0930E01BF91FE
:1003E000AF919F918F913F912F910F900FBE0F90E2
:1003F0001F90189526E8230F0296A11DB11DD2CF9C
:10040000789484B5826084BD84B5816084BD85B5EF
:10041000826085BD85B5816085BD80916E008160FB
:1004200080936E00109281008091810082608093A1
:1004300081008091810081608093810080918000A3
:100440008160809380008091B10084608093B100CE
:100450008091B00081608093B00080917A008460C8
:1004600080937A0080917A00826080937A008091F4
:100470007A00816080937A0080917A00806880930E
:100480007A001092C1008CE00E9487008BE00E94ED
:10049000870084E091E090933101809330011092C5
:1004A00024011092250110922601109227018091BB
:1004B000280190912901A0912A01B0912B018093EC
:1004C0002C0190932D01A0932E01B0932F0186E66D
:1004D00091E090931E0180931D01109211011092E2
:1004E0001201109213011092140180911501909144
:1004F0001601A0911701B0911801809319019093F2
:100500001A01A0931B01B0931C01C0E0D0E082E26D
:1005100091E00E94A901882321F082E291E00E94EB
:1005200072018FE091E00E94A901882321F08FE001
:1005300091E00E947201209751F30E940000E7CFE2
:10054000E2E2F1E024E031E03183208381E0808B3E
:100550001786168612861386148615869FB7F8941A
:100560004091350150913601609137017091380109
:100570009FBF4683578360877187F28BE18B12821E
:100580001382148215824287538764877587EFE050
:10059000F1E031832083808B1786168612861386BE
:1005A000148615862FB7F894809135019091360105
:1005B000A0913701B09138012FBF86839783A08720
:1005C000B187F28BE18B12821382148215828287AB
:1005D0009387A487B5870895EE0FFF1F0590F491C8
:0805E000E02D0994F894FFCF0F
:0A05E80000000000A6009801720157
:00000001FF
