:100000000C942F0B0C94570B0C94570B0C94570B10
:100010000C94570B0C94570B0C94570B0C94570BD8
:100020000C94570B0C94570B0C94570B0C94570BC8
:100030000C94570B0C94570B0C94570B0C94570BB8
:100040000C9406110C94570B0C94570B0C94570BF3
:100050000C94570B0C94570B0C94570B0C94570B98
:100060000C94570B0C94570B000000002400270041
:100070002A00FFD0FFE0FFCFFF64FFD1FF32380C32
:10008000060201FF64FFD0FFFE00000000250028EB
:10009000002B00040404040404040402020202020B
:1000A000020303030303030102040810204080013C
:1000B00002040810200102040810200000000800BB
:1000C000020100000304070000000000000000001F
:1000D000101000FE0A06A7089500FFFE0EFE0BFE9C
:1000E0001010201000FEAAAA00018000000180006C
:1000F0004A51EA505A51C99E000180000001800017
:100100000001800055551010201000FEAAAA000121
:100110008000000180003993C252325F8A5271938D
:100120008000000180000001800055551010201053
:1001300000FEAAAA00018000000180003BA5C124A6
:1001400031198924712580000001800000018000A0
:1001500055551010201000FEAAAA000180000001D1
:1001600080007BA5C1247919C12479258000000174
:1001700080000001800055551010201000FEAAAA32
:10018000000180000001800079BFC2487A49C2485E
:100190007989800000018000000180005555101011
:1001A000201000FEAAAA00018000000180007A4D04
:1001B000C2527B53C2D67A4F8000000180000001FA
:1001C000800055551010201000FEAAAA00018000E2
:1001D0000001800031A5CA287A31CA2849A58000CB
:1001E000000180000001800055551010201000FE15
:1001F000AAAA000180000001800073D1CA1073D147
:10020000CA1073DF80000001800000018000555596
:100210001010201000FEAAAA00018000000180003A
:1002200078E1C50078C1C42079C180000001800058
:100230000001800055551010201000FEAAAA0001F0
:1002400080000001800045F1C4407C41C44044412D
:100250008000000180000001800055551010201022
:1002600000FEAAAA000180000001800041F1C10047
:1002700041F1C1007D01800000018000000180008B
:1002800055551010201000FEAAAA000180000001A0
:10029000800045F1C4404441A84010418000000165
:1002A00080000001800055551010201000FEAAAA01
:1002B00000018000000180007DF1C1007DF1C100DE
:1002C00041018000000180000001800055551010A0
:1002D000201000FEAAAA00018000000180003DE17C
:1002E000C11041E1C1203D118000000180000001EA
:1002F000800055551010201000FEAAAA00018000B1
:10030000000180003CE1C1103911851078E18000C6
:10031000000180000001800055551010201000FEE3
:10032000AAAA00018000000180003DF1C0403841D0
:10033000844079F180000001800000018000555563
:100340001010201000FEAAAA000180000001800009
:100350007239CA204A39CA2073B98000000180006E
:100360000001800055551010201000FEAAAA0001BF
:100370008000000180007189CA184A09CA08719D6D
:1003800080000001800000018000555510102010F1
:1003900000FEAAAA00018000000180007199CA0431
:1003A0004A09CA10719D8000000180000001800090
:1003B00055551010201000FEAAAA0001800000016F
:1003C00080007199CA044A19CA0471998000000119
:1003D00080000001800055551010201000FEAAAAD0
:1003E00000018000000180007185CA0C4A15CA1CFA
:1003F00071858000000180000001800055551010BB
:10040000201000FEAAAA000180000001800049938C
:10041000EA546A59DBD44A5380000001800000018D
:10042000800055551010201000FEAAAA000180007F
:10043000000180003453C29A311789127113800071
:10044000000180000001800055551010201000FEB2
:10045000AAAA00018000000180007BB9C12479397B
:10046000C1247939800000018000000180005555C9
:100470001010201000FEAAAA0001800000018000D8
:100480003325C4B447ADC4A434A580000001800066
:100490000001800055551010201000FEAAAA00018E
:1004A0008000000180007D11C1B07D51C1107D111F
:1004B00080000001800000018000555510102010C0
:1004C00000FEAAAA00018000000180003A5DC2522D
:1004D000325D8A52719D8000000180000001800021
:1004E00055551010201000FEAAAA0001800000013E
:1004F000800079CFC2107991C0507B8F80000001BD
:1005000080000001800055551010201000FEAAAA9E
:10051000000180000001800079C1C2007981C040E3
:1005200043818000000180000001800055551010BB
:10053000201000FEAAAA000180000001800039C13D
:10054000C2005981C8403B81800000018000000149
:10055000800055551010201000FEAAAA000180004E
:100560000001800071C1CA007181D0404B818000C0
:10057000000180000001800055551010201000FE81
:10058000AAAA000180000001800049C1CA00498177
:10059000C840338180000001800000018000555573
:1005A00000000008000E010A0A0804008080808014
:1005B000808080008080050404080208888888887C
:1005C000060A0A080100242424FC4848FC90909064
:1005D000070A0A080100107C9290701C12927C108D
:1005E000070A0A0801006294946810102C52528C79
:1005F000070A0A0801003844444438728A848C721D
:1006000001040408040880808080030C0C0803FFA8
:10061000204040808080808080404020030C0C0877
:1006200002FF8040402020202020204040800707FB
:100630000708010110925438549210070707080167
:1006400001101010FE1010100204040803FEC04038
:100650004080060101080104FC020202080300C0F8
:10066000C0060A0A08010004040810102020408077
:1006700080060A0A080100304884848484848448FF
:1006800030050A0A0802002060A020202020202037
:10069000F8060A0A08010078848404182040808043
:1006A000FC060A0A0801007884840438040484845F
:1006B00078060A0A080100081828488888FC0808F3
:1006C00008060A0A080100FC808080F804040484FB
:1006D00078060A0A08010038408080F884848484FF
:1006E00078060A0A080100FC040408080810101023
:1006F00010060A0A0801007884848478848484843B
:1007000078060A0A080100788484847C04040408BA
:1007100070020707080301C0C0000000C0C0020942
:10072000090803FFC0C0000000C04040800509095F
:100730000802000810204080402010080605050827
:100740000102FC000000FC050909080100804020AE
:10075000100810204080060A0A08010078848404EA
:10076000081010001010060A0A080100384494AC62
:10077000A4A4A49C403C060A0A080100304848840E
:1007800084FC84848484060A0A080100F884848432
:10079000F884848484F8060A0A0801007884848036
:1007A000808080848478060A0A080100F0888484A6
:1007B0008484848488F0060A0A080100FC80808012
:1007C000F880808080FC060A0A080100FC80808096
:1007D000F88080808080060A0A080100788484807E
:1007E000809C84848C74060A0A08010084848484B2
:1007F000FC8484848484050A0A080200F8202020EE
:100800002020202020F8070A0A0801003E080808D6
:10081000080808888870060A0A080100848890A0E1
:10082000C0C0A0908884060A0A08010080808080E9
:100830008080808080FC060A0A0801008484CCCC79
:10084000B4B484848484060A0A08010084C4C4A45D
:10085000A494948C8C84060A0A0801007884848409
:10086000848484848478060A0A080100F8848484D5
:10087000F88080808080070B0B0801FF78848484D7
:10088000848484B4CC7806060A0A080100F88484BB
:1008900084F89088888484060A0A08010078848491
:1008A00080601804848478070A0A080100FE10108A
:1008B00010101010101010060A0A08010084848419
:1008C00084848484848478070A0A080100828282EE
:1008D00044444428281010060A0A0801008484842D
:1008E00084B4B4CCCC8484060A0A08010084844809
:1008F00048303048488484070A0A0801008282444C
:1009000044281010101010060A0A080100FC040404
:10091000081020408080FC030C0C0804FFE080805D
:100920008080808080808080E0060A0A0801008044
:10093000804020201010080404030C0C0801FFE084
:1009400020202020202020202020E0060303080172
:10095000093048840701010801FFFE030303080270
:100960000A8040200608080801007884047C8484FA
:100970008C74060B0B080100808080B8C4848484CA
:1009800084C4B806080808010078848080808084C8
:1009900078060B0B080100040404748C848484849E
:1009A0008C74060808080100788484FC80808478B0
:1009B000050B0B08010018202020F8202020202003
:1009C00020060B0B0801FE04748888887040788428
:1009D0008478060B0B080100808080B8C48484846E
:1009E000848484050B0B0802002020006020202056
:1009F000202020F8050D0D0801FE08080018080841
:100A000008080808089060060A0A08010080808823
:100A100090A0C0A0908884050A0A080200602020E7
:100A2000202020202020F8070808080100EC9292DE
:100A30009292929292060808080100B8C4848484B5
:100A4000848484060808080100788484848484846B
:100A500078060A0A0801FEB8C484848484C4B88075
:100A600080060A0A0801FE748C848484848C7404D1
:100A700004060808080100B8C484808080808006CD
:100A800008080801007884806018048478050A0A40
:100A90000801002020F82020202020201806080827
:100AA0000801008484848484848C74060808080106
:100AB00000848484484848303007080808010082D0
:100AC0009292929292926C060808080100848448DF
:100AD0003030488484060A0A0801FE8484848484B1
:100AE0004C34040478060808080100FC04081020AF
:100AF0004080FC030C0C0803FF6080804040808035
:100B00004040808060010E0E0804FE80808080805E
:100B1000808080808080808080030C0C0802FFC071
:100B200020204040202040402020C007030308012F
:100B30000862928C1010201000FEAAAA000180000A
:100B40000001800073D1CA104BD1CA1073DF80003E
:100B5000000180000001800055551010201000FE9B
:100B6000AAAA0001800000018000719DCA5273D3BF
:100B7000C252425D80000001800000018000555596
:100B80001010201000FEAAAA0001800000018000C1
:100B9000499DCA527A5DCA50499180000001800087
:100BA0000001800055551010201000FEAAAA000177
:100BB0008000000180007393CA52739FCA1272139F
:100BC00080000001800000018000555510102010A9
:100BD00000FEAAAA00018000000180004B93EA52A7
:100BE0005B9FCA524B93800000018000000180008F
:100BF00055551010201000FEAAAA00018000000127
:100C0000800074B9A6A425A5A4A474B9800000012D
:100C100080000001800055551010201000FEAAAA87
:100C200000018000000180004BD1EA105BD1CA10A6
:100C30004BDF80000001800000018000555510103E
:100C4000201000FEAAAA000180000001800039CD1A
:100C5000C212319F8852739380000001800000010E
:100C6000800055551010201000FEAAAA0001800037
:100C70000001800079CDC212799FC0527B93800021
:100C8000000180000001800055551010201000FE6A
:100C9000AAAA00018000000180004B9DC92079199B
:100CA000C9044939800000018000000180005555C9
:100CB0001010201000FEAAAA000180000001800090
:100CC0004BB9C9087909C908493180000001800081
:100CD0000001800055551010201000FEAAAA000146
:100CE00080000001800045CDC4904489A8841099FB
:100CF0008000000180000001800055551010201078
:100D000000FEAAAA0001800000018000721DCA1224
:100D10007213C21243DD80000001800000018000D8
:100D200055551010201000FEAAAA000180000001F5
:100D300080007213CA127213C21243CD80000001E8
:100D400080000001800055551010201000FEAAAA56
:100D500000018000000180000E2189200E218A20E0
:100D6000092180000001800000018000555510100D
:100D7000201000FEAAAA000180000001800039DDD9
:100D8000C202318D8850739F8000000180000001F5
:100D9000800055551010201000FEAAAA0001800006
:100DA0000001800039DDC202318D8842739D8000D0
:100DB000000180000001800055551010201000FE39
:100DC000AAAA000180000001800071CFCA104A0D5C
:100DD000CA0271DD800000018000000180005555CD
:100DE0001010201000FEAAAA00018000000180005F
:100DF0007245CA4C7245C244418F80000001800098
:100E00000001800055551010201000FEAAAA000114
:100E1000800000018000725DCA42724DC250419F45
:100E20008000000180000001800055551010201046
:100E300000FEAAAA00018000000180003B9DC120A5
:100E4000311989047139800000018000000180009F
:100E500055551010201000FEAAAA000180000001C4
:100E6000800039D3C212421FC21239D38000000160
:100E700080000001800055551010201000FEAAAA25
:100E800000018000000180004511ED105551C5B0F2
:100E900045118000000180000001800055551010B0
:100EA000201000FEAAAA00018000000180003B8DF6
:100EB000C252339F8A127213800000018000000129
:100EC000800055551010201000FEAAAA00018000D5
:100ED000000180007B8DC2527B9FC2127A1380007A
:100EE000000180000001800055551010201000FE08
:100EF000AAAA0001800000018000398FC250324D43
:100F00008A42719D800000018000000180005555DB
:100F10001010201000FEAAAA00018000000180002D
:100F2000339BC42225A394A2639B80000001800010
:100F30000001800055551010201000FEAAAA0001E3
:100F400080000001800039DDC20832098A0871DDA5
:100F50008000000180000001800055551010201015
:100F600000FEAAAA000180000001800039DDC2084D
:100F70004189C0483B9D8000000180000001800045
:100F800055551010201000FEAAAA00018000000193
:100F900080000EF990200C2182201C21800000018D
:100FA00080000001800055551010201000FEAAAAF4
:100FB000000180000001800031CFCA104991C85063
:100FC000338F800000018000000180005555101013
:100FD000201000FEAAAA00018000000180007221FA
:100FE000CB6072A1C220422180000001800000017C
:100FF000800055551010201000FEAAAA00018000A4
:1010000000018000338FCA507B91CA104A0F8000C4
:101010000001800000018000555500000008000E0E
:10102000010A0A080400808000808080808080801F
:10103000070A0A08010010107C929090927C101010
:10104000070A0A0801001C202020F82020207CC26A
:101050000608080801018448784848784884070A47
:101060000A08010082442810FE10FE101010010A28
:101070000A08040080808080000080808080060A4A
:101080000A080100788480788484780484780402D3
:101090000208020C9090080A0A0800003C4299A538
:1010A000A1A1A599423C05070708020570087888A8
:1010B0007800F806090908010024244848904848A7
:1010C0002424060404080100FC04040406010108A9
:1010D0000104FC080A0A0800003C42B9A5A5B9A908
:1010E000A5423C06010108010BFC03040408020AA6
:1010F00040A0A040070909080101101010FE1010BF
:101100001000FE050707080205708808708080F847
:101110000507070802057088087008887003030334
:1011200008030A2040800508080802FE888888888D
:10113000D8A88080060C0C0801FF7CF4F4F4F47449
:1011400014141414141C020202080304C0C0030285
:10115000020802FE20C00307070802052060A02045
:10116000202020050707080205708888887000F88D
:1011700006090908010090904848244848909006C4
:101180000A0A08010044C4485050242C549C840688
:101190000A0A08010044C4485050283444889C0678
:1011A0000A0A080100C4244830D0242C549C840628
:1011B0000A0A080100101000101060848484780668
:1011C0000E0E080100601800003048488484FC843A
:1011D000848484060E0E0801001860000030484820
:1011E0008484FC84848484060E0E08010030480048
:1011F000003048488484FC84848484060E0E0801F0
:1012000000649800003048488484FC848484840608
:101210000E0E080100484800003048488484FC84D1
:10122000848484060E0E080100304830003048489F
:101230008484FC84848484070A0A0801003E509058
:1012400090FE909090909E060C0C0801FE7884848D
:10125000808080808484781060060E0E0801006013
:10126000180000FC808080F880808080FC060E0ED4
:1012700008010018600000FC808080F88080808079
:10128000FC060E0E08010030480000FC808080F84B
:1012900080808080FC060E0E08010048480000FC9B
:1012A000808080F880808080FC050E0E080200603F
:1012B000180000F82020202020202020F8050E0E05
:1012C00008020030C00000F820202020202020202C
:1012D000F8050E0E08020060900000F82020202083
:1012E00020202020F8050E0E08020090900000F843
:1012F0002020202020202020F8070A0A080000785B
:10130000444242F24242424478060E0E0801006412
:1013100098000084C4C4A4A494948C8C84060E0EFB
:1013200008010060180000788484848484848484A4
:1013300078060E0E0801001860000078848484840A
:101340008484848478060E0E0801003048000078FA
:10135000848484848484848478060E0E0801006466
:1013600098000078848484848484848478060E0EB3
:10137000080100484800007884848484848484843C
:10138000780605050801028448304884060C0C08DC
:1013900001FF0474888C9494A4A4C444B880060EFD
:1013A0000E0801006018000084848484848484848E
:1013B0008478060E0E08010018600000848484847E
:1013C000848484848478060E0E080100304800006E
:1013D00084848484848484848478060E0E080100C6
:1013E0004848000084848484848484848478070E3C
:1013F0000E0801001860000082824444281010107A
:101400001010060B0B0801008080F088848488F09F
:10141000808080060A0A08010070888888F8848421
:1014200084C4B8060C0C080100601800007884041D
:101430007C84848C74060C0C080100186000007811
:1014400084047C84848C74060C0C080100304800F1
:10145000007884047C84848C74060C0C080100647D
:101460009800007884047C84848C74060C0C080139
:1014700000484800007884047C84848C74060D0D38
:1014800008010030483000007884047C84848C7427
:101490000708080801007C92127E9090927C060A50
:1014A0000A0801FE78848080808084781060060CB1
:1014B0000C08010060180000788484FC8080847827
:1014C000060C0C08010018600000788484FC808001
:1014D0008478060C0C08010030480000788484FCF5
:1014E00080808478060C0C0801004848000078844D
:1014F00084FC80808478050C0C080200C030000059
:1015000060202020202020F8050C0C08020030C0AC
:10151000000060202020202020F8050C0C0802008C
:101520006090000060202020202020F8050C0C088E
:1015300002009090000060202020202020F8060C5F
:101540000C08010064182844047C84848484847812
:10155000060C0C08010064980000B8C484848484DC
:101560008484060C0C0801006018000078848484D0
:1015700084848478060C0C080100186000007884CC
:10158000848484848478060C0C08010030480000B0
:101590007884848484848478060C0C080100649820
:1015A00000007884848484848478060C0C0801000C
:1015B0004848000078848484848484780607070877
:1015C0000101300000FC000030060A0A0801FF0497
:1015D000788C9494A4A4C47880060C0C0801006054
:1015E0001800008484848484848C74060C0C0801A4
:1015F00000186000008484848484848C74060C0C3D
:10160000080100304800008484848484848C74063B
:101610000C0C080100484800008484848484848C75
:1016200074060E0E0801FE18600000848484848411
:101630004C34040478050C0C0802FE8080F0888885
:101640008890A0C0808080060E0E0801FE484800E9
:101650000084848484844C3404047800AF12112400
:101660001FBECFEFD8E0DEBFCDBF11E0A0E0B1E0FC
:10167000E2E3F6E202C005900D92A033B107D9F77C
:1016800023E0A0E3B1E001C01D92A038B207E1F76A
:101690001BE0CFE2DBE004C02197FE010E941113A2
:1016A000CE32D107C9F70E9450110C9417130C9435
:1016B000000080E00895AF92BF92CF92DF92EF9248
:1016C000FF920F931F93CF93DF936C017B018B01EC
:1016D000040F151FEB015E01AE18BF08C017D1073C
:1016E00059F06991D601ED91FC910190F081E02DC6
:1016F000C6010995892B79F7C501DF91CF911F911B
:101700000F91FF90EF90DF90CF90BF90AF90089532
:1017100090E0FC01E554FF4F2491FC01E955FF4F97
:101720003491FC01ED56FF4FE491EE23C9F02223E2
:1017300039F0233001F1A8F4213019F1223029F1D8
:10174000F0E0EE0FFF1FE757FF4FA591B4918FB761
:10175000F894EC91611126C030953E233C938FBFE5
:1017600008952730A9F02830C9F0243049F7809136
:1017700080008F7D03C0809180008F7780938000F0
:10178000DFCF84B58F7784BDDBCF84B58F7DFBCF72
:101790008091B0008F778093B000D2CF8091B0005D
:1017A0008F7DF9CF3E2BDACF3FB7F89480913E037F
:1017B00090913F03A0914003B091410326B5A89BAF
:1017C00005C02F3F19F00196A11DB11D3FBFBA2FD3
:1017D000A92F982F8827BC01CD01620F711D811D93
:1017E000911D42E0660F771F881F991F4A95D1F718
:1017F000089508950F931F93CF93DF93FC01A68163
:10180000B781C581D0E033E0D695C7953A95E1F729
:10181000362F3770E0E8F0E08F0102C0159507958C
:101820003A95E2F7FC018281481B4C9FC0014D9F15
:10183000900D1124669566956695680F792F711D38
:10184000A60FB71F8C91E02F222339F0E82BEC93E1
:10185000DF91CF911F910F910895E095E823F7CF85
:10186000FB014181DC0112962C911297421768F01E
:1018700013962C911397241740F0608115962C91A4
:10188000621718F424810C94FA0B0895FC018081EE
:101890009281980F92832181921760F494819F5FC7
:1018A00094839381890F821710F08FEF820F8383C7
:1018B00081E0089580E00895FC01128280818150CA
:1018C000838314820895DB01ED91FC9109940F93B9
:1018D0001F93CF93DF931F92CDB7DEB700914803DC
:1018E00010914903E0917703F091780382E0099524
:1018F00030E020E04AE0B80186E493E00E94630C07
:10190000182FE0917703F091780383E00995E09137
:101910007703F091780380E009951123B9F1609184
:101920004803709149039E012F5F3F4F46E486E4D0
:1019300093E00E94630C8981809346036091480381
:10194000709149039E012F5F3F4F47E486E493E087
:101950000E94630C898180934703609148037091D2
:10196000490330E020E048E486E493E00E94630C01
:1019700080935103609148037091490329E733E054
:1019800047E186E493E00E94630C11E0812F0F9001
:10199000DF91CF911F910F9108950B96FC018491D7
:1019A00008950A96FC0184910895FC01849108959C
:1019B0000E94D50C882321F0823011F083E0089535
:1019C00086E00895FC01E60FF11D849190E0982FC8
:1019D00088273196E4918E0F911D089568E00C944C
:1019E000E20C66E00C94E20C5F926F927F928F9211
:1019F0009F92AF92BF92CF92DF92EF92FF920F939E
:101A00001F93CF93DF93EC01E62EF42EC22E0C81B0
:101A10001D81C8010E94D50CD82E8C819D810E9409
:101A2000D80C982E21E0AA24AA94D21202C02FE04A
:101A3000A22E8C819D810E94D10CD82E8C819D81FB
:101A40000E94CD0CB82E8C819D810E94EE0CE0E6A8
:101A5000EC1578F4009769F0080F191F91E6D92E5C
:101A6000BC14C0F4188A1B8A1C8A198A1A8A80E05E
:101A7000A0C08C819D810E94F10CF0E4FC1538F42B
:101A8000009729F0080F191F81E4D82EE9CF0F5EC7
:101A90001F4FE6CFBD1430F3892D90E0F80124915B
:101AA0002F3F31F40F5F1F4FBD14E1F2D394F6CFF7
:101AB000CD1072C08C819D810E94D50C98012F5F42
:101AC0003F4FF801882319F0823009F04EC084910D
:101AD0008B8BF90124912C8BF8013396E491E88BE0
:101AE000F8013496E491E98BF8013596E491EA8B9C
:101AF0000115110509F4BBCF8C819D810E94D80C82
:101B00003C89F31A9A89F91A9FEF930F9F0D2CA91C
:101B10004EA94F1508F449C0921718F49F1508F004
:101B200047C02B899989E90E9FEF920F9E0D4BA913
:101B30005DA95E1508F44DC0941718F49E1508F0C1
:101B400037C0080F111D295F722E76947694769413
:101B50006F2C630E5E01FCE1AF0EB11C872C912C43
:101B6000F61431F15E2C68014AC08491982F9F7061
:101B700092509A8B82958F70898BF9012491822FD4
:101B80008F708C8B22952F702B8BF8013296E491FD
:101B9000E295EF70E88BACCF3296E491EA21E80F42
:101BA000F92FF11D0E0F1F1F7FCF921708F0B6CF30
:101BB0008889DF91CF911F910F91FF90EF90DF9077
:101BC000CF90BF90AF909F908F907F906F905F90DD
:101BD0000895941708F0B2CFEBCFF60184916A8193
:101BE0007B815C8EFD8E1F8E8E8F95014BE3CE0127
:101BF0000E94630CFFEFCF1ADF0A28E0520E8C2DF3
:101C0000801B871550F3080D191DF394A9CF2EE9F9
:101C10003FE0009709F40895F9013197F1F7019732
:101C2000F8CF3091340340913103509133036091E8
:101C30003203A0913703B0913803E0913503F0915E
:101C400036039FB790933003F8949C91392B9C9165
:101C5000492398E087FF0EC03C93880F20812623FC
:101C600020832081252B20839150A1F78091300380
:101C70008FBF08954C93F1CFCF93C62F81111BC016
:101C800088EF0E94110E8C2F807F0E94110E8C2FE6
:101C90008295807F0E94110E88E290E0FC013197CE
:101CA000F1F7FC013197F1F7FC013197F1F701975A
:101CB000F1F7CF910895813031F78AEFE2CF860FA7
:101CC000911DFC0183A18F3F19F0642F0C94880BA8
:101CD0000895EF92FF920F931F93CF93DF93EC0140
:101CE000142F79016150673008F085C0E62FF0E0CD
:101CF000E458F14F0C941113830E4F0F0B0F030F89
:101D0000110F160F4C0F8C010D5D1F4F7C0180E3EE
:101D1000E80EF11CF80181918F018F3F21F190E0D5
:101D2000FC01E955FF4F24918D569F4FFC01849192
:101D3000882399F090E0880F991FFC01E859FF4F24
:101D4000A591B491FC01E757FF4F859194918FB70E
:101D5000F894EC91E22BEC938FBF61E0F80131979E
:101D600080810E94880BE016F106A1F640E062E057
:101D7000CE010E945F0E41E064E0CE010E945F0E42
:101D800040E065E0CE010E945F0E2FA188A590E0A3
:101D9000FC01ED56FF4FE491F0E0EE0FFF1FE75717
:101DA000FF4F45915491509338034093370330E0EF
:101DB000F901ED56FF4FE491F0E0EE0FFF1FE757FA
:101DC000FF4F459154915093360340933503895505
:101DD0009F4FFC01849180933403F901E955FF4F33
:101DE000E491E0933303E095E0933203E82FE0952C
:101DF000E09331031EA281E0DF91CF911F910F91FB
:101E0000FF90EF9008958BA160E08F3FA1F3CE018A
:101E10000E945F0EF0CF41E0111101C040E062E08E
:101E2000F6CF642F8EA10E943C0EE5CF8EA18111CA
:101E300015C088EF0E94110EC8E2D0E0111112C047
:101E400088E290E0FC013197F1F7FC013197F1F75E
:101E5000FC013197F1F70197F1F7CDCF813061F7B0
:101E60008AEFE8CFF7018081807F0E94110EF70191
:101E700081917F018295807F0E94110E1150CE01C9
:101E80000197F1F7DBCFF70164918EA10E943C0E20
:101E9000FFEFEF1AFF0A11501111F5CFACCF4EA38F
:101EA000AACFDB011496ED91FC9130E020E065E0D3
:101EB0000994DB011496ED91FC9130E020E062E0A2
:101EC0000994DB011496ED91FC9130E020E063E091
:101ED00009949F92AF92BF92CF92DF92EF92FF92BE
:101EE0000F931F93CF93DF937C018B01942E690195
:101EF0002AE0421751F185E1481709F488C0F8013A
:101F0000C281D381F2E39F1609F42BC1F91508F4BD
:101F1000CDC025E1921609F429C187E1981609F48C
:101F200038C194E19912F1C0EE81FF818D8124E0E6
:101F3000829FC00111248E0F9F1F11928E179F0741
:101F4000E1F7CE010E945C0CE0C0DB011496ED913C
:101F5000FC9130E020E043E061E0099580E092E709
:101F6000A92E90E0B92EF501C491811110C081E035
:101F7000CF3F49F04C2FB801C7010E94510F882371
:101F800009F4BDCF80E0BFEFAB1ABB0AECCF4FEF37
:101F9000CF3F89F3CE3F09F4B2CFC03F98F7C03EA0
:101FA00038F04C2F4F70B801C7010E94590FEACF8B
:101FB000C03D38F04C2F4F70B801C7010E94610F2F
:101FC000E1CFC03CF8F0D8011496ED91FC9130E0DF
:101FD00020E040E064E0C7010995C295C07FCE5F74
:101FE000D0E0CE010E94070ED8011496ED91FC912D
:101FF00030E020E041E064E0C7010995CE010E9495
:10200000070EC0CFC7FDBECF8C2F90E0F8CFFB01ED
:10201000A280B38040E0C7010E94590F41E0B8019F
:10202000C7010E94610FD5011296CC9112971696A6
:10203000AD90BC90D0E2DC0F40E0B801C7010E9437
:10204000590F4EE3B801C7010E94510FC03228F565
:102050004C2F4068B801C7010E94510F40E8B801F9
:10206000C7010E94510F41E0B801C7010E94590FFA
:10207000D8011496ED91FC91950140E166E0C7010D
:102080000995B0E1AB0EB11CCF5FCD13D5CF40E0C9
:10209000B801C7010E94610F32CF40EE4C0F40687B
:1020A000B801C7010E94510F48E8D9CFA6E49A169B
:1020B00009F479C0B7E49B1609F479C0EBE39E12EA
:1020C00024C0D60111969C91119713968C9138E0FB
:1020D000390F813031F0833011F0392F02C0392FA0
:1020E000985021E04B81491708F420E041E039176E
:1020F00008F040E091E05A81351708F490E0322F63
:10210000342B932379F4242369F481E0DF91CF9178
:102110001F910F91FF90EF90DF90CF90BF90AF9005
:102120009F900895F601128100E0F12C843048F46C
:1021300090E0FC01E25EFE4FF080865E9E4FDC0187
:102140000C9117FF04C0B601CE010E94300CF601BD
:1021500080818F0D80838181800F8183110F89F7AA
:10216000D4CFB601CE010E94300CCFCFCE010E9459
:10217000460C882359F2EE81FF818D81A4E08A9F6D
:10218000C00111248E0F9F1F11928E179F07E1F738
:10219000BCCFF60110828A8181838D818150828338
:1021A0008B818383B2CF8D81D6018C93AECF898111
:1021B000F6018083AACFDF92EF92FF920F931F93D5
:1021C000CF93DF93EC01D62E1CAD0BAD7C0184E0E8
:1021D000E80EF11CE98DFA8DC7010995412F480FD2
:1021E0002D2D602FC7010E94F40C9BAD890F8BAF82
:1021F00081E090E0DF91CF911F910F91FF90EF90E0
:10220000DF900895089590E080E008951F920F9266
:102210000FB60F9211242F933F938F939F93AF93F9
:10222000BF9380913A0390913B03A0913C03B091FE
:102230003D033091390323E0230F2D3758F50196E4
:10224000A11DB11D2093390380933A0390933B0362
:10225000A0933C03B0933D0380913E0390913F03D4
:10226000A0914003B09141030196A11DB11D80933F
:102270003E0390933F03A0934003B0934103BF916B
:10228000AF919F918F913F912F910F900FBE0F9023
:102290001F90189526E8230F0296A11DB11DD2CFDD
:1022A000789484B5826084BD84B5816084BD85B531
:1022B000826085BD85B5816085BD80916E0081603D
:1022C00080936E00109281008091810082608093E3
:1022D00081008091810081608093810080918000E5
:1022E0008160809380008091B10084608093B10010
:1022F0008091B00081608093B00080917A0084600A
:1023000080937A0080917A00826080937A00809135
:102310007A00816080937A0080917A00806880934F
:102320007A001092C10080915103883209F0EFC009
:102330008FEF809366035EED252E50E0352E6FED16
:10234000862E60E0962EC4EDD0E00FEC10E079E52B
:10235000A72E7BE0B72E80917F03811105C021E07D
:1023600020937F030E94670CE0904803F09049039C
:10237000E0917703F091780382E00995E09177038B
:10238000F091780381E0099530E020E044E1B70165
:1023900086E493E00E94630C29E733E047E1B7014C
:1023A00086E493E00E94630CE0917703F091780358
:1023B00080E009954BEDC42E40E0D42E80914A0375
:1023C00090914B038F5C904069F110934B03009305
:1023D0004A0380915D038111AAC0FE01849180931C
:1023E0005E03F601849180935F0380915E03082E63
:1023F000000C990B20915F03821B910927FD939597
:1024000020916003203441F0829FC001112436E006
:10241000969587953A95E1F780936103B0925C03B6
:10242000A0925B03E0915B03F0915C0386E493E090
:10243000099596E1692E680E22E2E22E21E0F22E45
:10244000712CF70121917F01211181C0E09154038A
:10245000F0915503309719F086E493E00995E090E8
:102460004803F0904903E0917703F091780382E00C
:102470000995E0917703F091780381E0099530E0C8
:1024800020E045E1B70186E493E00E94630C782EDA
:10249000882341F029E733E047E1B70186E493E080
:1024A0000E94630CE0917703F091780380E0099536
:1024B000711084CF0E94D40B2B013C0184EFC82EF5
:1024C000DD24D394E12CF12C0E94D40B64197509FE
:1024D00086099709683E734081059105A8F3F1E0EC
:1024E000CF1AD108E108F10828EE420E23E0521E6F
:1024F000611C711CC114D104E104F10429F780E0CE
:1025000090E0892B09F427CF0E94000024CF82306D
:1025100011F483E00ECF813009F40BCF803309F042
:102520000ACF8FEF809366038093670304CF8130D7
:1025300031F4F101849180935E03F40153CFECED0B
:10254000F0E0849180935E03EDEDF0E04BCF462DFB
:10255000672D86E493E00E94F40C780E72CF1092FF
:1025600045031092440382E191E0909343038093EA
:10257000420310927D0310927E0310927F0310920B
:102580004B0310924A0310924D0310924C03109289
:102590004F0381E080934E0382E2809350031092B8
:1025A000550310925403E9E6F3E08FEF819393E033
:1025B000E737F907D9F791E09093660329E53BE007
:1025C00030935C0320935B0390935D0310925E0352
:1025D00010925F0390E4909360031092610329EFDF
:1025E0003BE0309378032093770328E031E0309389
:1025F0004903209348039DE090936D039BE09093E3
:102600006E039AE090936B0380936A03809369034F
:102610000E94670C82E191E0909343038093420310
:102620000895EE0FFF1F0590F491E02D0994F894A2
:02263000FFCFDA
:102632002040000000803001690F0001690E000097
:102642000000DB105B0B03110211000100FF01000F
:10265200FF0048656C6C6F20576F726C642100003C
:00000001FF
